:020000040800F2
:10000000680F0020A1010008D93A00084D37000808
:10001000D53A00081D080008E55700080000000058
:10002000000000000000000000000000654B000818
:100030008508000800000000093B0008994B0008F3
:10004000BB010008BB010008BB010008BB010008A0
:10005000BB010008BB010008BB010008BB01000890
:10006000BB010008BB010008BB010008BB01000880
:10007000BB01000821080008BB0100083108000886
:1000800041080008BB010008BB010008BB010008D3
:10009000BB010008BB010008BB010008BB01000850
:1000A000BB0100083D4C0008BB010008BB01000873
:1000B000BB0100080000000000000000BB010008B8
:1000C000BB010008BB010008BB010008BB01000820
:1000D000BB010008B1560008C9560008E1560008E7
:1000E00089080008BB0100080000000000000000B3
:1000F0000000000000000000000000000000000000
:1001000000000000BB01000800000000BB01000867
:100110000000000000000000BB010008BB01000857
:10012000BB010008BB010008BB010008BB010008BF
:10013000BB010008000000000000000000000000FB
:10014000BB010008BB010008BB0100080000000063
:10015000BB010008BB010008BB010008BB0100088F
:10016000BB010008BB010008BB0100080000000043
:10017000BB010008BB0100080000000000000000F7
:10018000BB010008BB010008BB010008DFF80CD070
:1001900000F05EFA00480047D95F0008680F0020B1
:1001A0000648804706480047FEE7FEE7FEE7FEE711
:1001B000FEE7FEE7FEE7FEE7FEE7FEE7294C000864
:1001C0008D0100082DE9F05F0546002092469B4610
:1001D00088460646814640241BE02846414647465D
:1001E000224600F061F853465A46C01A914110D396
:1001F00011461846224600F048F82D1A67EB010810
:100200004F4622460120002100F03FF817EB00097D
:100210004E41201EA4F10104DFDC484631462A4647
:10022000434600F000B830BCBDE8C09FD2B201E048
:1002300000F8012B491EFBD270470022F6E710B5EB
:1002400013460A4604461946FFF7F0FF204610BD44
:10025000421C10F8011B0029FBD1801A704730B5F1
:100260000B46014600202022012409E021FA02F574
:100270009D4205D303FA02F5491B04FA02F528440E
:10028000151EA2F10102F1DC30BD202A04DB203A68
:1002900000FA02F1002070479140C2F1200320FAD9
:1002A00003F3194390407047202A04DB203A21FAD7
:1002B00002F00021704721FA02F3D040C2F120027F
:1002C00091400843194670472DE9FE4F804681EA68
:1002D0000300C00F0C46009021F0004123F00045C0
:1002E000B8EB0200A94105D24046214690461C4683
:1002F0000B46024623F00040104347D0270DC7F3BA
:100300000A00C3F30A510290401A019040286BDAA8
:10031000C3F3130040F4801B0098924620B10023E1
:10032000D2EB030A63EB0B0B01985946C0F1400274
:100330005046FFF7AAFF06460D4650465946019A19
:1003400000F098F910EB08006141002487EA11528F
:1003500084EAE7731A4340D0009A62B3019A012AF3
:100360004FEA075215DC001B61EB02014FF000421F
:1003700002EA0752CDE90042001C41F580113246E5
:100380002B4600F098F903B000F045B840462146EE
:10039000F9E7001B61EB0201001C41F58013001816
:1003A0005B412018A2F5001747EB030140EAD57026
:1003B000B6196D4111E06D084FEA360645EAC07581
:1003C0004FEA0752001B61EB0201001C41F580114E
:1003D00049084FEA30000019514132462B4603B01C
:1003E00000F01CB800F058B900980122400000232A
:1003F000D0EB020263EBE073009821464FEAE07411
:10040000B8EB000061EB0401E9E783F000435BE730
:1004100081F0004158E730BCBDE8C08F30BCBDE87A
:10042000C04FFFF7DFBF2DE9FE4F81EA030404F060
:10043000004421F0004100944FF0000B23F00043F2
:1004400050EA01045ED052EA03045BD0C3F30A54BD
:10045000C1F30A552C44A4F2F3340194A0FB0254D6
:10046000C1F3130141F48011C3F3130343F4801368
:1004700001FB024400FB034E840A970A44EA8154BC
:1004800047EA8357A4FB076802958D0A05FB078599
:100490004FEA932C04FB0C542705029D4FEA0658A3
:1004A00047EA1637B5EB08056EEB070C870E920E80
:1004B00047EA811742EA8312A7FB0201B6EB0B0160
:1004C00064EB00042B0D43EA0C335E1844EB1C5024
:1004D000DA465146E7FB0201C5F313044FEA0B333A
:1004E00043EA14534FEA0432019C43EA0603A4F1A1
:1004F0000C040294009CCDE900B400F0DCF803B0D9
:1005000000F003B800200146F9E730BCBDE8C08F19
:100510002DE9F04D81EA030404F0004B21F0004581
:1005200014464FF0000A23F0004150EA050220D0A3
:1005300054EA01021DD0C5F30A570246C5F313035E
:10054000C1F31300C1F30A5640F4801543F480133D
:10055000A7EB0608101BD64608F2FD3873EB050022
:1005600002D308F1010801E092185B41B8F1000FD5
:1005700003DA00200146BDE8F08D00204FF4801121
:10058000064684460EE0171B73EB050705D3121BC6
:1005900063EB050306434CEA010C49084FEA3000BF
:1005A00092185B4150EA0107EDD152EA030012D0E4
:1005B00082EA040083EA0501084305D0101BAB4121
:1005C00006D20122002306E000224FF0004302E0A1
:1005D0006FF0010253101AEB06004CEB085110EBC0
:1005E0000A0041EB0B01BDE8F04D00F055B8C1F336
:1005F0000A52C1F3130140F2FF3341F480119A42D1
:1006000002DA00200146704740F233439A42A2F2D8
:10061000334202DC5242FFF747BEFFF736BE00000E
:1006200030B5041E71F1000404DB4FF00044404279
:1006300064EB0101141E73F1000405DB1C464FF04E
:100640000043524263EB0403994208BF904230BD1D
:10065000064C074D06E0E06840F0010394E807000F
:1006600098471034AC42F6D3FFF794FD28A3000856
:1006700048A30008202A06DBCB17203A41FA02F0F3
:1006800043EAE07306E041FA02F3D040C2F12002EF
:10069000914008431946704710B5141E73F10004C9
:1006A00008DA401C41F1000192185B411A4301D164
:1006B00020F0010010BD2DE9F04D92469B4611B18E
:1006C000B1FA81F202E0B0FA80F220329046FFF7F0
:1006D000DCFD04460F4640EA0A0041EA0B0153469E
:1006E0005A46084313D0114653EA010019D0C8F105
:1006F00040025046FFF7D8FD05460E465046594683
:100700004246FFF7C2FD084305D0012004E0204621
:100710003946BDE8F08D0020054346EAE0762C43DB
:1007200037430A986305E40AA0EB08000022FD0A9B
:1007300044EA47540A3002D500200146E9E70105A2
:1007400010196941DDE9084500196941BDE8F04D1E
:10075000A2E7000080B5014640F20820C2F2000086
:1007600001F0A6FC80BD000080B540F20820C2F276
:10077000000001F0AFFC043818BF012080BD00006C
:1007800010B500F01BF801281CBF022010BD40F27C
:100790000820C2F2000001F0AFFC044608B1204678
:1007A00010BD40F20820C2F200004FF4006101F0D9
:1007B00033FB002818BF0124204610BD81B0012062
:1007C0008DF803009DF8030001B0704780B582B03A
:1007D0009C4613460A46014640F20820C2F2000039
:1007E000CDF800C001F086FD002818BF012002B03E
:1007F00080BD000080B582B09C4613460A46014683
:1008000040F20820C2F20000CDF800C001F062FE04
:10081000002818BF012002B080BD0000FEE70000E4
:1008200080B540F2C010C2F2000000F0CBF880BDED
:1008300080B540F23010C2F2000000F0C3F880BD75
:1008400080B540F27810C2F2000000F0BBF880BD25
:10085000B0B5D0F800C0D0F808E0D0E91004012508
:1008600004F01C0405FA04F444600846CCF8043093
:10087000BEF1100F04BF10460A46CCF80800CCF8B1
:100880000C20B0BD7047000080B54FF4806000F0D0
:10089000B3F94FF4006000F0AFF94FF4805000F06E
:1008A000ABF94FF4005000F0A7F94FF4804000F08E
:1008B000A3F94FF4004000F09FF980BDEFF31080E2
:1008C00072B600BFFEE7000080B5002200F002F81B
:1008D00080BD000080B540F2241EC2F2000E9EF8DA
:1008E0000930002B1CBF012080BD9EF809308446D2
:1008F00000200EF803009EF809300EEB8303C3F8C6
:1009000004C09EF8093073441A729EF80920531CE3
:1009100030328EF809300A7042F63A72A1F801209E
:10092000C87080BD014690F82500022815D10868DE
:10093000D1E910C3026822F00E020260026822F0C0
:100940000102026003F01C00012202FA00F0CCF860
:100950000400002081F8252002E00420C863012063
:10096000002281F82420704780B590F825100229D4
:1009700021D10168D0F838E0D0E910C30A68BEF18F
:10098000000F22F00E020A600A6822F001020A60DB
:1009900003F01C014FF0010202FA01F1CCF804103F
:1009A0004FF0000180F8252080F8241001D0F04796
:1009B0000021084680BD0421C1630121084680BD95
:1009C000C06B7047B0B50268D0E910C4DCF80050C5
:1009D000136804F01C0E590712D5042101FA0EF415
:1009E00014EA05010CD01168890603D4116821F0BE
:1009F00004011160CCF80440016BB9B38847B0BD65
:100A0000990718D5022101FA0EF414EA050112D053
:100A10001168890606D4116821F00A0111600121CC
:100A200080F82510CCF80440C16A002280F8242008
:100A3000E1B18847B0BD190758BFB0BD082101FA20
:100A40000EF1294012D0116821F00E011160012130
:100A500001FA0EF2CCF80420C16380F82510416B36
:100A60000022002980F8242018BF8847B0BD00006C
:100A7000002804BF012070472DE9F04140F2000C2E
:100A8000C4F2020C02684FF6F8310CF58163CBF624
:100A9000FD719A4238BF01F580614CF6CD43114497
:100AA000CCF6CC43A1FB03136FF003060CF5806575
:100AB00006EA9303D0E9021ED0F810803CBF00255F
:100AC000C4F20205C0E91053022380F825301368F0
:100AD00047F6F075AB4300F114070B43E0CF43EA50
:100AE0000E0343EA08032B43046A33433B43234387
:100AF000B1F5804F136016D0D0E910324FF49566EF
:100B0000416802F01C020F27634508BFA8265CF865
:100B100006309740BB434CF806305CF806309140F5
:100B200019434CF8061000210122C16380F82520EA
:100B300080F82410BDE8F0410846704710B504461F
:100B400090F82400012820D0012084F8240094F893
:100B50002500012816D1022084F825000020E0633A
:100B6000D4F800C0DCF8000020F00100CCF8000050
:100B70002046FFF76DFE2068226B01683AB141F014
:100B80000E010AE0002084F82400022010BD21F0AC
:100B900004010160016841F00A01016020680168F8
:100BA00041F001010160002010BD0000B0B5044615
:100BB00000F016F9054640F2D800C2F200000078B5
:100BC000611C18BF044400BF00F00AF9401BA0429A
:100BD000FAD3B0BD80B590FAA0F040F2D441B0FA9B
:100BE00080F0C2F20001087040F2F020C2F2000072
:100BF00001F07AFF80BD000080B540F21441C4F2DC
:100C000001010A68024208BF80BD0860FFF7E2FFE9
:100C100080BD00002DE9F04F83B00D68002D00F07D
:100C2000C58000F138424FEAB22241F2000701923A
:100C3000C4F600070722002600244FF0010AB8423C
:100C400008BF0422009209E00D68043435FA0AF264
:100C50000AF1010A06F1020600F0A880AAF1010CCF
:100C6000012202FA0CFB15EA0B09EDD0D1F8048041
:100C700008F00305A5F1010EBEF1010F11D8876838
:100C80000322CB68B24027EA0202B3401A438260D3
:100C90004268C8F3001322EA0B0203FA0CF31A436A
:100CA0004260032D1CD0C26803238F68B3409A436F
:100CB00007FA06F31A43022DC26011D16FF0030246
:100CC00002EA5C02024404F01C070F23D2F820E081
:100CD00003FA07F50B692EEA0505BB402B431362A7
:100CE000026803234F68B3409A4307F00303B340FD
:100CF0001A4317F4403F0260A6D041F26003C4F2E9
:100D000002031A6840F2004E42F001021A601A68AB
:100D1000C4F2010E02F001020292029A2CF00302C8
:100D20004FF608487244CFF6FF7852F8083004F0C6
:100D30000C070F25BD4023EA050C019B009D042BE9
:100D400038BF1D4605FA07F747EA0C0342F808309A
:100D5000DEF808204B6842EA090740F20C4CDD023D
:100D600058BF22EA0907CEF80870C4F2010CDCF87B
:100D700000209D0242EA090758BF22EA0907CCF881
:100D80000070DEF804209D0342EA090758BF22EAFA
:100D90000907CEF80470DEF80020DB0342EA0907F9
:100DA00058BF22EA0907CEF800704DE703B000F003
:100DB00000B830BCBDE8C08F0069084018BF0120F2
:100DC00070470000426902EA0103914341EA03418E
:100DD000816170471823002A08BF2823C15070473B
:100DE00040F66010C2F200000068704740F2D80080
:100DF00040F66011C2F20000C2F2000100780A68F9
:100E0000104408607047000080B5032000F066F8C9
:100E10000F2000F009F800281CBF012080BD00F061
:100E20002FF8002080BD0000B0B540F2D801C2F21A
:100E30000001097801B3044640F21000C2F200003C
:100E40004FF47A720068B2FBF1F1B0FBF1F001F0FF
:100E5000B5FD0F2C4FF001050CD858B94FF0FF30FD
:100E600021460022002500F029F840F2DC00C2F201
:100E7000000004602846B0BD01252846B0BD000032
:100E800082B041F25800C4F20200816841F00101D1
:100E90008160816801F0010101910199016841F0CF
:100EA00080510160006800F080500090009802B00E
:100EB0007047000080B504F097FC80BD70B5144603
:100EC0000D46064604F0A0FC2946224602F006FE26
:100ED0000146304604F0A0FC70BD000080B504F06F
:100EE000ADFC80BD47F20001C4F200010A68B0F514
:100EF000007F02F4C06026D1B0F5007F21D00868E1
:100F0000012262F34A20086040F21000C2F20000A1
:100F10000068322358434DF68363C4F21B33A0FBB1
:100F2000030302EB934000BF4B69421E824203D28F
:100F300013F480601046F7D14869400544BF032090
:100F4000704700207047B0F5806FFAD00868022221
:100F500062F34A20086000207047000047F200005A
:100F6000C4F20000006800F4C060704747F200005F
:100F7000C4F20000016841F4807101607047000014
:100F800041F20000C4F20200016841F00401016076
:100F90007047000080B541F20003B0F5003FC4F295
:100FA000020315D1D3F8900000F44070B0F5407FF3
:100FB0001DD0B0F5007F00F02581B0F5807F40F0B6
:100FC0006881D3F890004FF4004101EA803080BD81
:100FD0000146D86800F00300032811D0022816D07B
:100FE000012802D1186880071AD4002228E0186866
:100FF0004DF290018003C0F2030101EAE07080BD70
:10100000186841F200228003C0F27A0205E01868F5
:1010100042F200424005C0F2F40202EAE0720FE040
:101020001868000703D4D3F89400000900E018689A
:101030003C2202EA900046F6F052C0F60002125836
:10104000B1F5007F4FF0000025DA3F293EDC013981
:101050001F2900F27C80DFE801F0107B7A847A7A25
:101060007A7A7A7A7A7A7A7A7A7A7A7A7A7A7A7AE0
:101070007A7A7A7A7A7A7A7A7A8DD3F8880000F056
:101080000300DFE810F00500A700C700040098E7A0
:1010900000F05EFB80BDB1F5804F32DBB1F5802FF3
:1010A0003EDAB1F5804F00F06E80B1F5004F4ED1C1
:1010B000D3F88800400040F1A280186842F2004155
:1010C0004005C0F2F40101EAE07040E0402900F080
:1010D0006680802900F07180B1F5807F37D1D3F828
:1010E000880000F44030B0F5003F00F09380B0F588
:1010F000803F00F06F80002814BF002000F014FB38
:1011000080BDB1F5007F00F06880B1F5806F00F020
:101110006D80B1F5006F1AD1104602F0F7FC80BD6A
:1011200003D0B1F5002F18BF80BDD3F88800C0F3FD
:101130008160DFE800F00278889DD3F8980046F6D9
:1011400000418007C0F2DC2101EAE07080BD80BD73
:10115000D3F88800C0F38100DFE800F0513C5C0266
:101160002FE7D3F88800C0F30110DFE800F0483320
:10117000530226E7D3F88800C0F38120DFE800F0AF
:101180003F2A4A021DE7D3F8880000F04050B0F132
:10119000805F00F07780B0F1405F1BD079E0D3F83A
:1011A000880000F44050B0F5005F33D0B0F5805FA8
:1011B00010D0002840F06D8021E0D3F8880000F4C2
:1011C0004040B0F5004F25D0B0F5804F02D0002848
:1011D0005FD114E000F0D0FA80BDD3F88800C0F3EE
:1011E0008140DFE800F00C0F1702EAE6D3F8880030
:1011F000C0F30150DFE800F003060E02E1E600F064
:1012000093FA80BDD3F894004FF4FA41800701EAC5
:10121000E07080BD186842F200414005C0F2F40160
:1012200001EAE07080BD1868000144BF18695FEAF8
:10123000C0202ED51869D968C0F306205043C1F3E9
:1012400002111A690EE01868800144BFD8685FEA8D
:10125000C0201ED5D868D968C0F306205043C1F31A
:101260000211DA680131B0FBF1F0C2F3415129E01B
:10127000186880070DD5186800070CD4D3F89400BF
:10128000000909E01868000144BF18695FEAC0104E
:101290000BD4002080BD18683C2101EA900046F67E
:1012A000F051C0F60001085880BD1869D968C0F334
:1012B00006205043C1F302111A690131B0FBF1F06D
:1012C000C2F34161022202EB4101B0FBF1F080BDAB
:1012D0002DE9F04782B00446407841F288070007C4
:1012E000C4F2020702D44FF0000A2EE0606C88B10D
:1012F000B0F5400F17D0B0F5000F1BD157F87C0C9C
:101300004FF0000A40F4803047F87C0CBAF1000F2F
:101310000ED114E0201D002102F066FC8246BAF1D5
:10132000000F05D10BE04FF0000ABAF1000F06D014
:10133000D0460CE04FF0010ABAF1000FF8D138683E
:10134000616C20F44000084338604FF00008A0783A
:10135000800701D4C24664E057F8300C10F0805981
:101360000BD157F8300C40F0805047F8300C57F84C
:10137000300C00F080500190019847F20005C4F253
:101380000005286840F480702860FFF729FD0646B4
:101390002868C00506D4FFF723FD801B0328F7D378
:1013A0004FF0030ABAF1000F32D1B86810F4407060
:1013B00011D0A16D88420BD0B868B96820F4407094
:1013C00041F48031B960B96821F48031B960B86006
:1013D000C00703D112E00020C0070FD0FFF700FDC7
:1013E000064641F2893500BFB868800706D4FFF78A
:1013F000F7FC801BA842F7D34FF0030ABAF1000FA5
:1014000006D1B868A16D20F440700843C246B860A8
:10141000B9F1000F05D157F8300C20F0805047F893
:10142000300C2068C10712D1810718D441071ED49F
:10143000810624D481052AD4410530D4410636D40E
:1014400001063CD4C10542D4000348D461E03968A8
:10145000226A21F00301114339608107E6D539681A
:10146000626A21F00C01114339604107E0D5396807
:10147000A26A21F03001114339608106DAD539685A
:10148000E26A21F44061114339608105D4D539689D
:10149000E26B21F44021114339604105CED5396812
:1014A000226C21F44011114339604106C8D53968D6
:1014B000226B21F44051114339600106C2D53968CD
:1014C000626B21F4404111433960C105BCD53968D4
:1014D000A26B21F4403111433960000319D53968FA
:1014E000A06C21F040610143B0F1806F396009D0F8
:1014F000B0F1006F0DD157F87C0C40F4801047F824
:101500007C0C06E0201D012102F06EFB002818BFB4
:101510008246A078400719D53968E06C21F0406117
:101520000143B0F1806F396009D0B0F1006F0DD187
:1015300057F87C0C40F4801047F87C0C06E0201D26
:10154000012102F051FB002818BF82466078400656
:101550000FD53868216D20F040500843B1F1805F0D
:10156000386006D1201D022102F03EFB002818BF82
:1015700082466078000605D53868616D20F08040AD
:1015800008433860504602B0BDE8F0872DE9F043CB
:1015900081B0002800F0918042F20008C4F20208F5
:1015A0000446D8F800000D4600F0070088420CD22F
:1015B000D8F8000020F007002843C8F80000D8F849
:1015C000000000F00700A84277D1206841F2080926
:1015D0008107C4F202090DD5A168D9F8002002F0F4
:1015E000F002914206D9D9F8002022F0F00211430E
:1015F000C9F80010C00756D1206881070DD5A16831
:10160000D9F8002002F0F002914206D2D9F8002069
:1016100022F0F0021143C9F80010D8F8001001F0D0
:101620000701A9420CD9D8F8001021F0070129437D
:10163000C8F80010D8F8001001F00701A9423CD109
:10164000410707D5D9F80010E26821F4E0611143A1
:10165000C9F80010000708D5D9F80000216920F466
:10166000605040EAC100C9F8000000F085F8D9F8E0
:10167000001046F6D852C1F30311C0F60002515CC7
:1016800040F2100201F01F0120FA01F140F2DC00EB
:10169000C2F200000068C2F200021160FFF7C4FB52
:1016A00001B0BDE8F083606858B102282CD003284F
:1016B0002FD159F8081C890107D4012001B0BDE8D9
:1016C000F08359F8081C8907F7D5D9F8001021F0E4
:1016D00003010843C9F80000FFF782FB064641F208
:1016E000883700BFD9F80000616800F00C00B0EB4B
:1016F000810F3FF481AFFFF773FB801BB842F1D934
:10170000032001B0BDE8F08359F8081C8903D4D543
:10171000DBE759F8081C4905CFD5D6E740F21000A1
:10172000C2F200000068704780B5FFF7F7FF41F292
:101730000801C4F20201096846F6E852C1F3022129
:10174000C0F60002515C01F01F01C84080BD0000DE
:1017500080B5FFF7E3FF41F20801C4F20201096816
:1017600046F6E852C1F3C221C0F60002515C01F016
:101770001F01C84080BD000041F20C01C4F202010B
:1017800051F8040C10F00C02086805D00C2A40D166
:1017900000F0030001283CD151F80C0C000703D4E1
:1017A000D1F88800000A02E051F80C0C000946F656
:1017B000F05300F00F00C0F6000353F82030002A69
:1017C000184618BF00200C2A18BF7047086800F0A0
:1017D0000300022806D0032804BF41F20023C0F210
:1017E0007A0303E042F20043C0F2F40308680A6897
:1017F000C0F30210C2F30622096801305A43B2FB5B
:10180000F0F0C1F34161022202EB4101B0FBF1F0C3
:101810007047042A07D0082A0BD141F20020002388
:10182000C0F27A00CFE742F200400023C0F2F40099
:10183000C9E700200023C6E72DE9F04381B0002866
:1018400000F0428241F200060446C4F20206B0688B
:10185000F168227800F00C08D00601F003071CD4D0
:101860002078C00700F0ED80B8F1080F43D0B8F140
:101870000C0F08BF032F3ED06568B5F5A02F00F010
:10188000BB80B5F5803F00F0BB80306820F480302D
:101890003060306820F48020B5E0B8F1000F1BD034
:1018A000B8F10C0F08BF012F16D0A16930680029CC
:1018B00078D040F001003060FFF792FA054600BF93
:1018C0003068800700F18080FFF78AFA401B022809
:1018D0004FF00300F4D954E23068800703D5A069C3
:1018E000002800F0F181206A316809070CD4D6F88D
:1018F0009410090909E03068800340F1A280606813
:10190000002840F09E80DFE1316801F0F00188425C
:1019100016D902F02DFA002840F0D681306840F048
:10192000080030603068D4E9072120F0F000084357
:101930003060706820F47F4040EA0220706013E05D
:101940003168B8F1000F41F008013160316821F0D1
:10195000F00141EA000131607168E26921F47F41E0
:1019600041EA0221716041D0FFF706FFB16846F6F7
:10197000D852C1F30311C0F60002515C40F21002CC
:1019800001F01F0120FA01F140F2DC00C2F2000078
:101990000068C2F200021160FFF746FA002840F02A
:1019A000F0815DE720F001003060FFF719FA05468D
:1019B000306880077FF554AFFFF712FA401B02280A
:1019C0004FF00300F4D9DCE1306840F008003060EB
:1019D0003068D4E9072120F0F000084330607068D7
:1019E00020F47F4040EA0220706039E702F0C0F93D
:1019F000002840F06981B7E7306840F4802030600B
:101A0000306840F480303060FFF7EAF9002D054679
:101A100014D000BF3068800313D4FFF7E1F9401BF6
:101A200064284FF00300F5D9ABE100BFFFF7D8F908
:101A3000401B64284FF0030000F2A381306880034C
:101A4000F4D4207880072CD5B8F1040F1BD0B8F15E
:101A50000C0F08BF022F16D0E1683068002900F093
:101A60007F8140F480703060FFF7BAF9054600BF0F
:101A7000306840050ED4FFF7B3F9401B02284FF041
:101A80000300F5D97DE13068400503D5E068002802
:101A900000F01A817068216920F0F85040EA016076
:101AA00070602078000760D42078400777D42078D1
:101AB000800600F1AC80A06A002800F06C8102284A
:101AC00040F0D380F068E16A00F003028A4240F0FF
:101AD000E380226B6FF00F0300F0700103EB021242
:101AE000914240F0D980616B00F4FE42B2EB012FCD
:101AF00040F0D280A16B00F07842B2EBC16F40F0B1
:101B0000CB80E26B0023CFF6E07303EB025200F4CC
:101B1000C0016FF31402914240F0BE80216C4FF07F
:101B20007E4202EB016100F0C06001F07E4188421C
:101B300040F0B2803068800100F12D81306840F0C3
:101B400080703060F06840F08070F060FFF748F916
:101B500004463068800100F11E81FFF741F9001B47
:101B600002284FF00300F4D90BE16169D6F8940024
:101B7000002966D040F00100C6F89400FFF730F964
:101B8000054600BFD6F8940080078DD4FFF728F9EA
:101B9000401B0228F6D9032001B0BDE8F083B06DE8
:101BA00010F0805908D1B06D40F08050B065B06D34
:101BB00000F080500090009847F20007C4F2000740
:101BC0003868C00511D4386840F480703860FFF779
:101BD00007F905463868C00507D4FFF701F9401B2F
:101BE00002284FF00300F5D9CBE0A568052D00F0E1
:101BF0008480012D00F08780D6F8900020F001004D
:101C0000C6F89000D6F8900020F004007FE0616AEA
:101C1000D6F8980000295BD040F00100C6F8980083
:101C2000FFF7DEF8054600BFD6F8980080073FF5BD
:101C300042AFFFF7D5F8401B02284FF00300F3D95D
:101C40009FE020F00100C6F89400FFF7C9F80546B0
:101C5000D6F8940080077FF527AFFFF7C1F8401B47
:101C600002284FF00300F3D98BE0B8F10C0F2BD012
:101C7000306820F080703060FFF7B2F8044600BF93
:101C80003068800140F18080FFF7AAF8001B02282D
:101C90004FF00300F4D974E0B8F10C0F14D03068A1
:101CA000400111D4306820F080703060FFF798F860
:101CB00005463068800172D5FFF792F8401B022874
:101CC0004FF00300F5D95CE0012001B0BDE8F083DE
:101CD00020F00100C6F89800FFF782F8054600BF23
:101CE000D6F8980080077FF5E6AEFFF779F8401B3D
:101CF00002284FF00300F3D943E0D6F8900040F0FB
:101D00000400C6F89000D6F8900040F00100C6F834
:101D10009000FFF765F8002D054641F2883712D094
:101D2000D6F89000800712D4FFF75AF8401BB8424B
:101D30004FF00300F4D924E0FFF752F8401BB842FB
:101D40004FF003001DD8D6F890008007F4D4B9F105
:101D5000000F7FF4ACAEB06D20F08050B065A6E609
:101D600020F480703060FFF73BF80546306840058E
:101D70007FF597AEFFF734F8401B02284FF00300C1
:101D8000F4D901B0BDE8F083F0684FF6FC71CFF6EE
:101D9000EE610840F060002001B0BDE8F083F0681B
:101DA00048F28C01C0F29D1104F12C0700EA010CED
:101DB0008ECF6FF00F00D4E90F5400EB0210002219
:101DC000CFF6E07241EA0C0102EB055208436FF3D3
:101DD00014024FF07E4540EA032005EB04651043F2
:101DE00005F07E4540EAC7602843F060306840F067
:101DF00080703060F06840F08070F060FEF7F0FFB7
:101E0000044630688001C6D4FEF7EAFF001B0228B2
:101E10004FF00300F5D9B4E72DE9F04784B004464C
:101E2000032084F83400606C0D4603280BD0002D8D
:101E300057D0B5F5805F06D0B5F5006F55D1204677
:101E400002F00AFD01E04FF08050A16B40F2FF5814
:101E50000843A063A06BC0F2400820B12068C0F81E
:101E60003880012524E04FF40020FFF793F898B361
:101E700043F68931D4E905E7C5F2E651A0FB011923
:101E8000BE1CD4E900C1B0FBF6F047F64006D4E929
:101E90000223C0F27D16B04260466FF0010A88BF8F
:101EA0000AEBD957CDE9005E029702F003FB00254B
:101EB00020684FF4007101F0D7FF30B1216801258F
:101EC000C1F83880A16B0843A0630121284684F83B
:101ED000341004B0BDE8F087A06B40F00060A06350
:101EE000BFE7204602F08CFCAFE74FF00060ACE7A4
:101EF000D0E91D2C130E0B70130A120642EA1C22A5
:101F00004B804A60D0E91E230A721A0E4A7290F87A
:101F1000832042EA0322CA60D0F88000C0F3035253
:101F20000A74C0F30B22C0B240084A82087501222D
:101F300000204A757047000080B5D0E9193ED0F8FE
:101F400044C09A0F0A70C3F383624A70C3F30162FC
:101F50008A701A0CCA701A0A0A714FEA1E524B7123
:101F6000CA80CEF303420A72CEF3C0324A72CEF375
:101F700080328A72CEF34032CA72CEF300320A73D4
:101F80000022BCF1010F4A732DD0BCF1000F40F0CC
:101F9000808040F6FC72C36E02EA8E0242EA9372BF
:101FA0000A61C26EC2F3C2630B75C2F302634B7562
:101FB000C2F342538B75C2F38243C2F3C232CB7574
:101FC0000A760A690B7E013203F0070302339A4056
:101FD00042650B7A03F00F0C012303FA0CF38365BF
:101FE0005B0A5A430FE0B0F86E200EF03F0342EA5E
:101FF00003420A610A694FF4806303EB82224FF4C3
:102000000073C0E91523C2654FF400720266D0E97F
:102010001B20C2F380334B76C2F3C61302F07F025B
:102020008B76CA76C20F0A77C0F341724A77C0F343
:1020300082628A77C0F38352CA77C0F3405281F834
:1020400020200022C0F3004381F8212081F82230B3
:10205000C0F3C03381F82330C0F3803381F82430DB
:10206000C0F3403381F82530C0F3003381F82630C7
:10207000C0F3812381F82730C0F30123C0B24008A8
:1020800081F8283081F82900012081F82A001046C3
:1020900080BD016840F2FF52C0F240028A63816B4A
:1020A000012241F08051816380F83420104680BDC8
:1020B00080B500F1440E9EE80C5081E80C10426D92
:1020C000C1E903E2D0E91623C1E90523026E00202D
:1020D000CA6180BD10B582B004460020019001A9FC
:1020E000204602F075FB10B1A16B0843A063019874
:1020F000C0F3432002B010BD10B578B1044690F88B
:10210000340020B900202077204600F07DF803201D
:1021100084F83400204600F013F808B1012010BD07
:1021200021692046FFF778FE00284FF0010018BF14
:1021300010BD0021A163216384F83400002010BD8C
:10214000F0B583B004464FF40020FEF723FFE0B360
:1021500048F659310546C009C0F24F11A0FB0101F4
:102160006FF001020F09206802EB11160021CDE982
:102170000011002100220023029602F09BF9206842
:10218000416821F48071416002F0AAF92068B5FB32
:10219000F7F242F210134168C0F20103B3FBF2F20E
:1021A00041F480714160501CFEF700FD204602F0B2
:1021B000AFFA18B9204602F037FA70B10146012093
:1021C00084F83400A26B114304E001204FF0006159
:1021D00084F83400A16303B0F0BD20684FF40071AF
:1021E00001F042FE68B1216840F2FF52C0F24002A5
:1021F0008A63A16B0843A063012084F8340003B014
:10220000F0BD002003B0F0BD2DE9F0439DB00446C1
:1022100000201C90CDE91A00CDE9180001A85C212E
:10222000FEF70BF8206842F60001C4F20101884273
:1022300002D01DB0BDE8F0834FF4002001904FF0B4
:10224000806013900120CDE9020010200490072047
:1022500005904FF480104FF00208089001A8CDE9D6
:102260000688FFF735F8002818BFFEF727FB41F274
:102270004C00C4F20200416940F6000441F4806160
:1022800041614169C4F6000401F480610091009944
:10229000016818AD41F00401016001684FF00009C8
:1022A00001F00401009100990168032641F0080142
:1022B000016000680C2700F00800009000984FF4BF
:1022C000F850CDE9180820462946CDF868901B96AD
:1022D0001C97FEF79FFC042018A981E8010304F570
:1022E00080602946CDE91B67FEF794FC1DB0BDE870
:1022F000F08300002DE9F04786B09A4615460E4659
:102300000446FEF76DFD7EB1804694F83400012846
:102310000ED10021A163E06D0AEB050282420FD9C4
:10232000A06B40F0007006E0A06B40F0006002E09F
:10233000A06B40F00050A063012006B0BDE8F0871C
:10234000032084F83400626C2068012A4FF0FF32C9
:10235000C16218BF6D0200924FEA4A224FF0020993
:1023600001929022CDE903910127694602920597D7
:1023700001F0F2FEBAF1020F07D3C4F830902068E2
:10238000294601F0D1FD30B916E0276320682946BF
:1023900001F0E4FD80B1216840F2FF52C0F240023A
:1023A0008A63A16B0843A0630120002184F83400F4
:1023B000216306B0BDE8F087DDF83890019D05E0A7
:1023C000FEF70EFDA0EB080048454AD22068426B9C
:1023D000416B12F4957F11D1002D18BF11F400400C
:1023E000EED0043E082700BF206802F081F8013FCC
:1023F00046F8040FF8D1203D0436E1E7BAF1020FA8
:1024000009D311F4807106D0616C032903D001F067
:1024100053FE0028BFD12068416B090734D4416BBB
:1024200089073AD4416B890640D42068002D416B5E
:1024300018BF11F4001142D002F05AF846F8040B0C
:10244000043DFEF7CDFCA0EB08004845EDD3206825
:1024500040F2FF51C0F240018163A06B40F00040A8
:10246000A1E7206840F2FF51C0F240018163A06BF8
:1024700040F00040A063012084F834000020206375
:10248000032006B0BDE8F08740F2FF51C0F24001E2
:102490008163A06B40F0080085E740F2FF51C0F275
:1024A00040018163A06B40F002007CE740F2FF51E5
:1024B000C0F240018163A06B40F0200073E740F25E
:1024C0003A518163012084F83400002006B0BDE851
:1024D000F08700002DE9F04F87B0984615460F466B
:1024E0000446FEF77DFC7FB1824694F83400012853
:1024F0000ED10021A163E06D08EB050282420FD9E5
:10250000A06B40F0007006E0A06B40F0006002E0BD
:10251000A06B40F00050A063012007B000F0BCB8F1
:10252000032084F83400626C2068012A4FF0FF32E7
:10253000C16218BF6D0201924FEA482202929022B6
:10254000CDE9032105910121069101A901F004FEC5
:10255000B8F1020F07D3202020632068294601F03C
:10256000C7FD38B917E0102020632068294601F024
:10257000D9FD80B1216840F2FF52C0F240028A6367
:10258000A16B0843A0630120002184F8340021637B
:1025900007B000F081B8DDF84090DDF808B06D4676
:1025A00006E000BFFEF71CFCA0EB0A00484547D23E
:1025B0002068426B416B12F48D7F20D1BBF1000F7C
:1025C00018BF11F48040EDD0043F082617F8040F1F
:1025D0000090797840EA01200090B97840EA014003
:1025E0000090F97840EA016120680091294601F0E5
:1025F00099FF013EEAD1ABF1200B0437D2E7B8F1E5
:10260000020F09D311F4807106D0616C032903D045
:1026100001F052FD0028ADD12068416B090720D49C
:10262000416B890726D4416BC9062CD440F23A513C
:102630008163012084F83400002007B000F02CB83A
:10264000206840F2FF51C0F240018163A06BA0639B
:10265000012084F8340000202063032007B000F03C
:102660001BB840F2FF51C0F240018163A06B40F003
:10267000080087E740F2FF51C0F240018163A06B80
:1026800040F002007EE740F2FF51C0F2400181635A
:10269000A06B40F0100075E730BCBDE8C08F0000B3
:1026A000002804BF01207047B0B50446406A20B13D
:1026B0000020206104F1140005E06068B0F5827F1D
:1026C00003D004F11C00002101600025A56294F8EC
:1026D0005D0020B9204684F85C5000F04FF80220DD
:1026E00084F85D002068D4F80CE00268BEF5E06F65
:1026F00022F0400202604EF4006298BF0125B2F55C
:10270000706F1CBF0023A3624FEA053CD4E901357A
:10271000D4E9042103F4827305F404452B4402F048
:1027200002021A44A36901F00101E569114403F4AE
:102730000072114405F03802256A114405F0800248
:10274000A56A114405F40052114301600421626A34
:102750000EF4706501EA1341636B45EA0C0502F063
:102760001002294303F0080311431943416000207C
:102770000121206684F85D10B0BD000080B586B0F0
:10278000006843F20001C4F2010188424FF00000EA
:102790000590CDE90300CDE9010001D006B080BD70
:1027A00041F24C00C4F20200416941F480514161A0
:1027B000416901F4805100910099016841F00201E2
:1027C0000160006801A900F0020000900098282034
:1027D0000190022002900120039003200490052024
:1027E000059040F20040C4F60000FEF713FA06B070
:1027F00080BD00002DE9F04182B01D4616460F460F
:102800000446FEF7EDFA94F85D1001290DD18046DB
:10281000002F4FF0010018BF002E02D102B0BDE81A
:10282000F08194F85C00012803D1022002B0BDE8D9
:10283000F081012084F85C00032084F85D00002012
:102840002066A763A687E6872064A4F84400A4F85E
:102850004600A168C4E91300B1F5004F08D1206813
:10286000016821F040010160016841F4804101608C
:1028700020680168490603D4016841F04001016005
:102880006168731EE268B1FA81F1B3FA83F3490912
:102890005B09B2F5E06F41EA03012ED939B1A16BB2
:1028A0000988C160B81CA063E08F0138E087E08F21
:1028B000002863D06E1C0AE0A16B31F8022BC260C5
:1028C000A163E08F0138E087E08F002856D02068B0
:1028D00081688907F0D4FEF783FA002EF4D0A0EBCC
:1028E0000800A842F0D3012084F85D00002084F89D
:1028F0005C00032002B0BDE8F08100294FF6FE71B4
:1029000012D0E28F022A06D3A26B1288C260B81CD2
:102910004FF6FE7204E03A780273A06B4A1C013055
:10292000A063E08F1044E087E08F38B36E1C4F1C2B
:102930000CE0A16B0978017301203946A26B1044A9
:10294000A063E08F0844E087E08FB8B12068816819
:10295000890709D4FEF744FA002EF5D0A0EB080051
:10296000A842F1D3BFE700BFE18F0229E1D3A16BF9
:102970000988C16002204FF6FE71DFE72046294634
:10298000424601F0FBFF00281CBF20202066A06803
:1029900038B9002001902068C168019180680190D9
:1029A0000198012084F85D00002084F85C00206E0E
:1029B000002818BF012002B0BDE8F08180B502F008
:1029C000D3F880BD704700007047000070470000DA
:1029D00010B590F83C20012A4FF002022DD00123BF
:1029E00080F83C3080F83D20026842F6004C536885
:1029F000D2F808E0C4F2010C624503D14C6823F41C
:102A0000700323430C6823F070032343B2F1804F1B
:102A1000536007D044F20003C4F201039A4201D08C
:102A2000624504D189682EF0800319439160012129
:102A3000002280F83D1080F83C20104610BD0000B8
:102A4000002804BF0120704710B5044690F83D00EF
:102A500028B9002084F83C00204600F023F802202A
:102A600084F83D002068211D02F0F0F8012084F870
:102A7000480084F83E0084F83F0084F8400084F861
:102A8000410084F8420084F8430084F8440084F84C
:102A9000450084F8460084F8470084F83D00002093
:102AA00010BD000080B582B0006842F60041C4F25B
:102AB0000101884201D002B080BD41F26000C4F241
:102AC00002000168002241F40061016000680021F9
:102AD00000F40060019001981920FEF7EFF9192029
:102AE000FEF7E8F902B080BD90F83D1001291CBF47
:102AF00001207047022180F83D100168C868B1F1DB
:102B0000804F40F00100C8600BD044F20000C4F2D6
:102B10000100814205D042F60040C4F2010081422A
:102B200012D188680722C0F201020240062A4FF043
:102B300000000ED0B2F5803F08BF7047086840F033
:102B40000100086000207047086840F0010008603C
:102B5000002070470146006841F21113C26822F05C
:102B60000102C260026A1A4208D1026A40F244437A
:102B70001A4203D1026822F0010202600122002001
:102B800081F83D207047000010B5044690F83C00E5
:102B900001284FF0020008BF10BD012284F83C203C
:102BA00084F83D00206888238268CFF6FE731A40BF
:102BB00082600A684F2A0FDC1F2A22DD202A23D0D8
:102BC000302A21D0402A4DD14B68CA68194602F0FC
:102BD0009DF8206840213BE06F2A17DDB2F5005FC9
:102BE00020D0B2F5805F2AD0702A3BD1D1E9012CE8
:102BF000CB68614602F076F82068816841F0770181
:102C00001AE00AB1102A2DD1114621E0502A18D01D
:102C1000602A27D14B68CA68194602F089F82068F3
:102C2000602115E0D1E9012CCB68614602F05AF829
:102C30002068816841F48041816000200BE0002021
:102C400009E04B68CA68194602F060F82068502114
:102C500002F054F80020012184F83D10002184F88E
:102C60003C1010BD0120F6E770470000F0B581B0C0
:102C700004460068C768066906EA0705A90727D45D
:102C8000680756D428076CD4E80600F18280E8076C
:102C900006D020686FF001010161204600F098F82D
:102CA00017F0800718BF16F4025006D020686FF4A2
:102CB000025101612046FFF787FE002F18BF16F46E
:102CC000807011D1680618D4A8061FD401B0F0BDD9
:102CD0006FF00201016101212177806980071ED018
:102CE0002046FFF7C1FF20E020686FF4807101618A
:102CF0002046FFF767FE6806E6D520686FF04001C2
:102D00000161204600F0D0F8A806DFD520686FF0FA
:102D1000200101612046FFF759FE01B0F0BD2046B9
:102D200000F052F8204600F051F8002020776807A4
:102D3000A8D520686FF00401016102212177806924
:102D400010F4407F03D02046FFF78EFF05E02046B9
:102D500000F03AF8204600F039F8002020772807E4
:102D600092D520686FF00801016104212177C069C4
:102D7000800703D02046FFF777FF05E0204600F0EC
:102D800023F8204600F022F800202077E8067FF59F
:102D90007EAF20686FF01001016108212177C069C2
:102DA00010F4407F03D02046FFF75EFF05E0204689
:102DB00000F00AF8204600F009F800202077E80724
:102DC0007FF467AF6CE700007047000070470000B9
:102DD00070B540F2F021C2F20001884200D070BD0F
:102DE00040F2D445C2F200052878012101FA00F62C
:102DF00040F2F02040F20044C2F20000C4F60004A9
:102E0000FFF7A8FEB1B22046FDF7D6FF0028E6D1B5
:102E100004F580600121FDF7D5FF28780A380328E2
:102E2000DDD8DFE800F0020F1C2C40F25C70C2F22B
:102E30000000006840F2D841C2F20001086003F0CF
:102E4000A5F870BD40F25C70C2F20000006840F26C
:102E5000D841C2F20001086003F0A6F870BD40F24C
:102E60005C70C2F20000006890F83310012916D09F
:102E7000002918BF70BD012180F8331070BD40F2E9
:102E80005C70C2F20000006890F83320818E012A45
:102E900002D10131818670BD0139818670BD00216A
:102EA00080F8331070BD00007047000070470000CC
:102EB00070470000B0B504460068E16FD4F8805058
:102EC0008068212919D110F0800016D0206850E8C0
:102ED000020F216820F0800041E80202002AF5D1AB
:102EE000206F38B1FDF71EFD20B1206FFDF768FDA2
:102EF000202821D0204602F0C7F82068222D8168C2
:102F00004FF0000021D111F0400108BFB0BD00BF5B
:102F1000206850E8020F216820F0400041E80202DA
:102F2000002AF5D1606F60B1FDF7FCFC48B1606F1D
:102F3000FDF746FD202804D11020C4F884000320AA
:102F4000B0BD204602F062F80020B0BD704700001E
:102F5000B0B50446006840F62F03C1690268856871
:102F60000B40202B02F0200E07D1BEF1000F04D041
:102F7000A16E99B320468847B0BD40F60F031942B1
:102F800013D040F22013C0F2004305F0010C1340AF
:102F900013EB0C0309D0CB0718BF12F4807340F079
:102FA000A7808B0700F1AE80B7E0D4F860C00A407C
:102FB000D3063CD5BCF1010F39D1102101628068E4
:102FC000400640D4B4F85800B4F85A10B4F85A2067
:102FD000002A1CBF401A5FEA004101D1B0BD00BF0A
:102FE000216851E8001F226821F4907142E8001323
:102FF000002BF5D1216851E8021F226821F0010160
:1030000042E80213002BF5D12021C4F880100021E2
:103010002166A166216851E8001F226821F0100195
:1030200042E80013002BF5D10221616654E0C90289
:1030300054D515F4800151D04FF48011016220461F
:10304000FFF736FFB0BD606F006841688AB2002AA2
:1030500000F0C480B4F858309A4280F0BF80A4F8E1
:103060005A100068800630D4206850E8000F2168AC
:1030700020F4807041E80002002AF5D1206850E871
:10308000020F216820F0010041E80202002AF5D178
:10309000206850E8020F216820F0400041E8020259
:1030A000002AF5D12020C4F880000020206600BF4F
:1030B000206850E8000F216820F0100041E800026D
:1030C000002AF5D1606FFDF72DFC02206066B4F890
:1030D0005800B4F85A10401A81B28AE0100600F184
:1030E0009780500658BFB0BD204601F0B9FFB0BD73
:1030F00001230362D4F8843043F00103C4F8843020
:103100008B070AD5BCF1000F07D002230362D4F865
:10311000843043F00403C4F884304B070AD5BCF173
:10312000000F07D004230362D4F8843043F0020375
:10313000C4F884300B070AD55CEA0E0307D00823D5
:103140000362D4F8843043F00803C4F884300B05DC
:103150000BD512F0806308D04FF400630362D4F8FB
:10316000840040F02000C4F88400D4F884000028D3
:103170003FF434AF02EA0100800603D5A16E09B125
:10318000204688472068D4F88410806801F0280120
:1031900000F04000401834D0204601F037FF20688E
:1031A0008068400629D500BF206850E8020F2168DA
:1031B00020F0400041E80202002AF5D1606FE0B142
:1031C00044F6F961C0F600018163FDF7CDFB0028EC
:1031D0003FF404AF606F816B8847B0BDB4F85810FE
:1031E00091427FF4FBAE006880067FF5F7AE0220C7
:1031F00060662046FFF75AFEB0BD2046FFF7A6FEE8
:10320000B0BD2046FFF7A2FE0020C4F88400B0BD88
:10321000E16E00297FF4AEAEE0E6000010B5C8B163
:103220000446C06F28B9002084F87800204600F0DA
:1032300025F82420E0672068616A026822F0010214
:10324000026011B1204601F085FD204602F000F831
:10325000012801D1012010BD2068416821F490416E
:103260004160816821F02A018160016841F001011B
:103270000160204601F0E2FD10BD0000F0B59DB0F8
:103280000446002501A85C211C95CDE91A55CDE91D
:103290001855FCF7D2FF206844F20041C4F2000147
:1032A00088425DD044F60001C4F20001884200F07B
:1032B000A38043F60001C4F20101884240F0EB8094
:1032C00001200190002601A80996FEF701F80028C8
:1032D00018BFFDF7F3FA41F24C00C4F20200416955
:1032E000022741F480414161416901F4804100912C
:1032F0000099016841F001010160006818A900F01F
:103300000100009000984FF4C060189003201B90BB
:1033100007201C904FF09040CDE91976FDF77AFC1C
:103320003020C4F2020040F230152830C2F200050D
:1033300080212022C5E900072846C5E90266C5E9C3
:103340000416C5E906622E62FDF792FB002800F024
:10335000A080FDF7B3FA40F23015C2F2000598E004
:10336000022601A801960A95FDF7B2FF002818BFB2
:10337000FDF7A4FA41F24C00C4F20200C168002734
:1033800041F40031C160C16801F40031009100993D
:10339000016841F001010160006818A900F0010016
:1033A000009000980C20CDE9180603201B90072000
:1033B0001C904FF090401A97FDF72CFC3020C4F27F
:1033C000020040F278153C30C2F200058021202234
:1033D00085E8C1002846C5E90371C5E90577C5E957
:1033E0000727FDF745FB002853D0FDF767FA40F2A9
:1033F0007815C2F200054CE004200190002601A8D7
:103400000B96FDF765FF002818BFFDF757FA41F24C
:103410004C00C4F20200C168022741F48021C1605F
:10342000C16801F4802100910099016841F0040114
:103430000160006818A900F0040000900098302096
:10344000189003201B9007201C9040F60000C4F643
:103450000000CDE91976FDF7DDFB40F2C015302004
:10346000C2F20005C4F2020080212022C5E9000753
:103470002846C5E90266C5E90416C5E906622E625A
:10348000FDF7F6FA28B1FDF719FA40F2C015C2F2BD
:1034900000056567AC621DB0F0BD00002DE9F0438A
:1034A00081B00446D0F88000202823D10E460029A0
:1034B0004FF001005DD01746002A5AD0002022218B
:1034C0009946C4F88400C4F880102066FDF788FC93
:1034D000A4F85870A4F85A70A168804671B1B1F18F
:1034E000805F0FD0B1F5805F10D1206940B940F204
:1034F000FF100EE0022001B0BDE8F083206938B96A
:10350000FF2006E0206918B13F2002E0002000E023
:103510007F20B1F5805F4FF00007A4F85C0004D174
:103520002069002804BF37460646B4F85C5000BF47
:10353000B4F85A00C8B12046202100224346CDF8F5
:10354000009002F053F8B8B92068002E808C00EA91
:10355000050012BF06F8010B27F8020B0026B4F88D
:103560005A000138A4F85A00E2E72020C4F880008D
:10357000002001B0BDE8F0832020C4F880000320C3
:1035800001B0BDE8F083000080B5D0F88030202B7A
:103590001CBF022080BD00294FF0010318BF002A84
:1035A00001D1184680BD00230366D0F800C048F260
:1035B0000003C4F200039C4510D0DCF804301B0269
:1035C0000CD500BF036853E800CFD0F800E04CF002
:1035D00080634EE8003CBCF1000FF3D101F058FFCE
:1035E0000346184680BD000080B5D0F88030202BFF
:1035F0001CBF022080BD00294FF0010318BF002A24
:1036000001D1184680BD00230366D0F800C048F2FF
:103610000003C4F200039C4510D0DCF804301B0208
:103620000CD500BF036853E800CFD0F800E04CF0A1
:1036300080634EE8003CBCF1000FF3D101F078FF4D
:103640000023184680BD000040F24C41C2F2000148
:10365000884218BF704780B540F60000C4F60000ED
:103660000121FDF7AFFB40F24C4040F21C11C2F2C9
:103670000000C2F200010422FFF7B6FFBDE880405F
:1036800070470000704700002DE9F04182B0044609
:10369000C06F20283ED10E4600294FF0010049D0CE
:1036A0001746002A46D04FF0000821201D46C4F8D6
:1036B0008480E067FDF794FBA4F85070A4F8527082
:1036C000A1680746B1F5805F0FD12069002814BFBB
:1036D0003046B046064608E016F8010B216808851A
:1036E000B4F852000138A4F85200B4F85200A8B15E
:1036F0002046802100223B46009501F077FFE0B98B
:10370000002EE9D138F8020B21686FF35F2008859D
:103710000026E5E7022002B0BDE8F0812046402106
:1037200000223B46009501F061FF2021E16700285F
:1037300018BF032002B0BDE8F0812020E06703201D
:1037400002B0BDE8F081000070470000FEE7000015
:1037500080B582B041F24800C4F202000168002244
:1037600041F0010101600068002100F001000190BA
:1037700001980D20FDF7A2FB0D20FDF79BFB0F200C
:1037800000210022FDF79AFB0F20FDF793FB10208C
:1037900000210022FDF792FB1020FDF78BFB02B009
:1037A00080BD000080B546F6206040F21811C0F6DA
:1037B0000000C2F20001FDF787F840F26071C2F22A
:1037C0000001087080BD00002DE9F04387B000279C
:1037D00041F24C000697CDE90477CDE90277C4F2B7
:1037E0000200016840F2004841F0040101600168F4
:1037F000C4F6000801F0040101910199016808F57F
:10380000806641F0800101600168002201F08001C2
:10381000019101990168072441F0010101600168EB
:1038200001F0010101910199016841F0020101607B
:10383000016801F0020101910199016841F008015C
:1038400001600068072100F00800019001983046EF
:10385000FDF7C0FA4FF090404FF4004100224FF4C2
:103860000049FDF7B7FA4046D0210022FDF7B2FA31
:1038700002AD0294012430462946CDE9034705975D
:10388000FDF7C8F94FF47C4002904FF40410CDE9E5
:10389000030440462946FDF7BDF9022004900326A3
:1038A0004FF090402946CDE902940596FDF7B2F914
:1038B0005020CDE9020440462946CDE90446FDF7F3
:1038C000A9F9802002A991C1404629460596FDF735
:1038D000A1F9282000210022FDF7F0FA2820FDF7A9
:1038E000E9FA07B0BDE8F08380B526200021002268
:1038F000FDF7E4FA2620FDF7DDFA2720002100225B
:10390000FDF7DCFA2720FDF7D5FA2520002100225B
:10391000FDF7D4FA2520FDF7CDFA80BD40F208204E
:1039200042F60001C2F20000C4F2010100224FF48D
:1039300000634FF0020CC0E90012C0E90222C0E9A6
:103940000432C0F818C0704770B540F28C2043F2C2
:103950000001C2F20000C4F201014FF482724FF480
:1039600000434FF4E06C4FF0020E012480E80E504B
:1039700000F114014FF40075082670C100210722E0
:10398000C0E90811C0E90A12C0E90C11FEF788FE6F
:10399000002818BFFCF792FF70BD000080B588B00A
:1039A00040F2F02042F600420021C2F20000C4F2D0
:1039B000010240F69F734FF0090C0791CDE9051104
:1039C000CDE90311CDE90111C0E90023C0E9021CD2
:1039D000C0E904118161FFF733F8002818BFFCF734
:1039E0006DFF4FF48050049040F2F020C2F20000CE
:1039F00004A9FFF7C9F8002818BFFCF75FFF0020F3
:103A0000CDE90100039040F2F020C2F2000001A9CC
:103A1000FEF7DEFF002818BFFCF750FF08B080BD9E
:103A200080B540F23C3043F60001C2F20000C4F21F
:103A3000010100234FF00C0C4FF4E13280E80E003E
:103A4000C0E90333C0E905C3C0E907334362FFF7A8
:103A5000E5FB002818BFFCF731FF80BD80B540F2C0
:103A6000C43044F20041C2F20000C4F2000100235D
:103A70004FF00C0C4FF4E13280E80E00C0E9033344
:103A8000C0E905C3C0E907334362FFF7C7FB00285D
:103A900018BFFCF713FF80BD80B540F24C4044F6E0
:103AA0000001C2F20000C4F2000100234FF00C0C30
:103AB0004FF4E13280E80E00C0E90333C0E905C3EA
:103AC000C0E907334362FFF7A9FB002818BFFCF7E2
:103AD000F5FE80BDFEE70000FEE7000000F00700F5
:103AE00080F00703042B28BF04234FF0FF3C03386A
:103AF0000CFA03F338BF0020994381400CFA00F020
:103B000022EA0000084370477047000041F20C02AF
:103B1000C4F20202D16F01F440030021B3F5400F5B
:103B200004BF4FF66871C0F21F0114D0ABB1B3F5FA
:103B3000000F24D152F80C1C890144BF11685FEAC0
:103B4000C1311FD452F80C0C42F200414005C0F2C2
:103B5000F40101EAE0710846704752F80C1C0901B3
:103B600044BF51685FEAC1311CD452F80C0C42F2D8
:103B700000414005C0F2F40101EAE0707047002105
:103B8000084670471168C1F302110131B0FBF1FC26
:103B9000116813680020B0EBD36FC1F3062111D078
:103BA000DA0E1AE01168C1F302110131B0FBF1FC29
:103BB000516853680020B0EBD36FC1F3062107D0E2
:103BC000DA0E0AE010681122800358BF072204E0D1
:103BD00050681122800358BF072201FB0CF0B0FB94
:103BE000F2F10846704700002DE9F04141F200046F
:103BF000C4F20204E2680E469107804613D0E168E1
:103C0000D8F8000001F0030181420AD148B1E06810
:103C1000D8F80410C0F302100130884201D1002509
:103C20003AE0012538E0D8F8000003280DD002283A
:103C300019D0012821D12168012301F00202C1F32A
:103C4000400183EA5205D9B926E0216889034FF083
:103C5000010145D4226802F4802381EA9345C2F32E
:103C6000804169B918E02168012301F48062C1F341
:103C7000802183EA922519B90EE00125002159B16E
:103C8000E168D8F8042021F073016FF00F0303EB13
:103C9000021208431043E06015B12846BDE8F081E8
:103CA000206820F080602060FDF79AF8074600BF8A
:103CB0002068000105D5FDF793F8C01B0328F7D352
:103CC0000325002DE9D1012E0ED00EBB206948F24C
:103CD000FF01C0F2FF710140D8E90220C00627E0D1
:103CE00000250029CCD1D7E748F2FF012069CFF6A3
:103CF000FF1101F1B4610140D8F810000023CFF6A4
:103D0000E073D8F8082003EB00506FF314000FE0C5
:103D1000206948F2FF01CFF6FF110140D8F81400E6
:103D20004FF07E43D8F8082003EB006000F07E409F
:103D300041EA022108432061206840F08060206051
:103D4000FDF74EF8064600BF2068000105D4FDF7D8
:103D500047F8801B0328F7D30325002D9DD1D8F801
:103D600018002169084320612846BDE8F081000061
:103D7000B0B582B041F25805C4F202052968044684
:103D8000C90015D4286840F080502860286800F0E9
:103D9000805001900198FDF7E1F8296821F08051E9
:103DA0002960B0F5007F08D0802C0DD9032015E0E4
:103DB000FDF7D4F8B0F5007FF6D1812C0DD30120AA
:103DC000A02C88BF022009E0A4F17000B0FA80F0B6
:103DD0004009802C08BF022000E0002042F20001D0
:103DE000C4F202010A6822F0070202440A6009686C
:103DF00001F00701081A18BF012002B0B0BD000091
:103E000010B586B004463720029040200390002071
:103E100004904FF480600191059001A9204600F0C4
:103E20006BFB2046372141F2883200F0C5F906B01D
:103E300010BD000010B586B0044641F0004040F4CB
:103E400080100190292002904020039000200490CF
:103E50004FF48060059001A9204600F04DFB2046FC
:103E600000F070FA06B010BD10B586B00446102000
:103E7000029040200390002004904FF48060019154
:103E8000059001A9204600F037FB2046102141F2A1
:103E9000883200F091F906B010BD000010B586B070
:103EA00004460620029040200390002004904FF426
:103EB00080600191059001A9204600F01DFB20467D
:103EC000062141F2883200F077F906B010BD0000FB
:103ED00010B586B004460020CDE90300CDE901000D
:103EE0004FF48060059001A9204600F005FB2046B4
:103EF00000F046F906B010BD10B586B004464FF488
:103F0000D57001900820029040200390002004907A
:103F10004FF48060059001A9204600F0EDFA20469C
:103F200000F08AFA06B010BD10B586B00446122023
:103F3000029040200390002004904FF48060019193
:103F4000059001A9204600F0D7FA2046122141F23F
:103F5000883200F031F906B010BD000010B586B00F
:103F600004461120029040200390002004904FF45A
:103F700080600191059001A9204600F0BDFA20461D
:103F8000112141F2883200F017F906B010BD00008F
:103F900010B586B004460720029040200390002010
:103FA00004904FF48060059001A92046019200F032
:103FB000A3FA2046072141F2883200F0FDF806B04E
:103FC00010BD000010B586B0022104460020029109
:103FD000C0210190CDE903104FF48060059001A944
:103FE000204600F089FA204600F080F906B010BDA6
:103FF00010B586B0044609200290C020039000202E
:1040000004904FF480600191059001A9204600F0D2
:1040100073FA204600F06AF906B010BD10B586B0FC
:10402000332104460020029140210190CDE9031084
:104030004FF48060059001A9204600F05DFA20460B
:10404000332141F2883200F0B7F806B010BD00000D
:1040500010B586B004460D20029040200390002049
:1040600004904FF480600191059001A9204600F072
:1040700043FA20460D2141F2883200F09DF806B047
:1040800010BD0000B0B586B00C46032105460020E7
:10409000029140210190CDE903104FF4806005901A
:1040A00001A9284600F028FA28460321224600F0FC
:1040B0006FF906B0B0BD000010B586B00C21044603
:1040C0000020029140210190CDE903104FF480605F
:1040D000059001A9204600F00FFA4EF20012C0F23E
:1040E000F55220460C2100F067F806B010BD000024
:1040F00010B586B00446192002904020039000209D
:1041000004904FF480600191059001A9204600F0D1
:10411000F3F92046192141F2883200F04DF806B03B
:1041200010BD000010B586B0044618200290402053
:104130000390002004904FF480600191059001A944
:10414000204600F0D9F92046182141F2883200F0CB
:1041500033F806B010BD000080B5024691E8095062
:104160005062936208694EEA0C0318434969D36AA6
:10417000084323F0F70101430020D16280BD000015
:1041800040F21001C2F20001096844F6D352C1F2B4
:104190006202A1FB0212510A41F288325143C94323
:1041A000013124BF4FF000407047426B1206F7D533
:1041B000C52181630020704770B540F21003C2F240
:1041C00000031B6844F6D355C1F26205A3FB053416
:1041D0000546600A50430E46013000BF013874D0D6
:1041E000696B11F0450FF9D011F40061F6D1686BDD
:1041F00040076DD4686BC0076CD1C520A863284602
:1042000000F04CF9B0421CBF012070BD28460021CF
:10421000002400F04BF94EF20801CFF6FF5108429E
:1042200061D000285AD4410044BF402070BD8100B5
:1042300044BF802070BDC10044BF4FF4807070BD8A
:10424000010144BF4FF4007070BD410144BF4FF401
:10425000806070BDC10144BF4FF4006070BD0102B9
:1042600044BF4FF4805070BD410244BF4FF4005032
:1042700070BD810244BF4FF4804070BDC10244BF95
:104280004FF4004070BD410344BF4FF4003070BD97
:10429000810344BF4FF4802070BDC10344BF4FF47D
:1042A000002070BD010444BF4FF4801070BD410474
:1042B00044BF4FF4001070BD810412D400074FF4C6
:1042C000000058BF4FF4803070BD4FF0004070BD0B
:1042D000042400E001242046AC6370BD4FF0007060
:1042E00070BD4FF48004204670BD000040F2100104
:1042F000C2F20001096844F6D352C1F26202A1FB86
:104300000212510A41F288325143C943013124BF9C
:104310004FF000407047426B12F0450FF6D012F498
:104320000062F3D1416B490706D4416BC90705D13F
:10433000C521816300207047042100E001218163D1
:104340000846704740F21001C2F20001096844F6C5
:10435000D352C1F26202A1FB0212510A41F2883229
:104360005143C943013124BF4FF000407047426BB5
:1043700012F0450FF6D012F40062F3D1416B042223
:1043800011F0040108BFC52282630846704700008F
:10439000F0B581B040F21003C2F200031B6844F68E
:1043A000D356C1F26206A3FB06340E460546600AE8
:1043B00041F2883148431746C04300BF013024D240
:1043C000696B11F0450FF9D011F40061F6D1686BFB
:1043D00040071ED4686BC0071DD1284600F05EF868
:1043E000B0421CD1C520A8632846002100F05EF829
:1043F00010F4604F16D0410419D400044FF48050DB
:1044000058BF4FF4803001B0F0BD4FF0004001B014
:10441000F0BD042000E00120A86301B0F0BD012040
:1044200001B0F0BD000C3880002001B0F0BD4FF4A9
:10443000005001B0F0BD000040F21001C2F20001D6
:10444000096844F6D352C1F26202A1FB0212510A7A
:1044500041F288325143C943013124BF4FF000403B
:104460007047426B12F0450FF6D012F40062F3D1A0
:10447000416B49070BD4416BC9070AD1416B49060F
:104480005CBF0020704740218163002070470421F9
:1044900000E0012181630846704700000069C0B256
:1044A00070470000006800F003007047084440694E
:1044B0007047000010B58446DDE902401943DDF87D
:1044C00010E02143084340EA0E00DCF804101043DA
:1044D00047F6FF62914301430020CCF8041010BD61
:1044E00080B5032101600220FCF760FB002080BD45
:1044F000D0F880007047000080B5D1E900C30246C3
:10450000D1E9020EC2F808C01843096940EA0E005A
:104510000843D16840F6FF73994301430020D160FE
:1045200080BD0000096802460020C2F88010704774
:1045300010B540F20C04C2F2000401202070FCF718
:1045400013F908B1207810BD207800F0FE0020702B
:10455000207810BD2DE9F04389B088460546FCF768
:104560003FFC064600212868019100910821FFF7D1
:104570007BFC10B109B0BDE8F083296D28680904FF
:10458000FFF73EFC0028F5D14FF0FF3003900820E4
:104590000490302005900220069000200790012111
:1045A0002868089103A9FFF7D7FD2868FFF736FDB3
:1045B0000028DFD1002740F22A44E94607E000BF87
:1045C000FCF70EFC801B01304FF00040D2D0296870
:1045D0004A6B486B224208D18002F1D50846FFF7AA
:1045E00087FF49F827000137EAE7000712D4486B34
:1045F000800711D4486B800610D440F23A5088638B
:10460000DDE9001000BA09BAC8E90001002009B0CC
:10461000BDE8F083082002E0022000E0202088634B
:1046200009B0BDE8F083000010B58CB00446006806
:104630000121ADF80210FFF735FF40B1606C03288F
:1046400021D02068FFF7BEFC28B10CB010BD4FF0A0
:1046500080600CB010BD20680021FFF727FF2168A3
:10466000606708460421FFF721FF2168A06708461C
:104670000821FFF71BFF2168E06708460C21FFF7C0
:1046800015FFC4F88000606C032806D020680DF187
:104690000201FFF7F7FC0028D7D1606C03281FD078
:1046A000BDF80210206821650904FFF7A1FC00286D
:1046B000CBD120680021FFF7F9FE2168606608462B
:1046C0000421FFF7F3FE2168A06608460821FFF7E2
:1046D000EDFE2168E06608460C21FFF7E7FE206743
:1046E00020680421FFF7E2FE000DE06401A92046E6
:1046F000FDF722FC18B14FF080500CB010BD216DB9
:1047000020680A040023FFF743FC0CB010BD000032
:10471000F0B581B00446002000902068FFF7D8FB78
:1047200008B101B0F0BD2068FFF7E6FB38B12068A2
:104730000021A164FFF7CCFB0028F2D101E00120A9
:10474000A064A06C012808D120680021FFF758FB65
:1047500018B14FF0805001B0F0BD00984FF6FE76D2
:10476000B04221D80025CCF210154FF6FF7700BFDC
:1047700020680021FFF744FB0028D2D12068294699
:10478000FFF758FB0028E4D120680021FFF78EFED8
:104790000099002801F101010091009901D4B9426A
:1047A000E6D300F0804000E000200099B14203D938
:1047B0004FF0807001B0F0BDB0F1804F04D1012006
:1047C0006064002001B0F0BD0020606401B0F0BD65
:1047D00070B551B10C46016D064600680904FFF73B
:1047E00037FC054620B1284670BD4FF0006070BD13
:1047F000306800210025FFF759FE2060284670BD73
:1048000010B582B00446002100680191009100219A
:10481000FFF74CFE800106D469462046FFF79AFE5A
:1048200028B102B010BD4FF4006002B010BD9DF879
:104830000600C00703D14FF0806002B010BD216DAB
:1048400020680904FFF7DCFA0028EAD1206800217B
:10485000FFF724FB02B010BD10B582B00446002162
:104860000068019100910021FFF720FE800106D42D
:1048700069462046FFF76EFE28B102B010BD4FF426
:10488000006002B010BD9DF80600400703D44FF051
:10489000806002B010BD216D20680904FFF7B0FAF6
:1048A0000028EAD120680221FFF7F8FA02B010BD13
:1048B00010B540F20C04C2F2000401202070FBF796
:1048C0005FFF08B1207810BDFFF732FE207020781E
:1048D00010BD000010B588B040F20C00C2F200001C
:1048E0000078C0070CD1084603290CD81446DFE82D
:1048F00000F00B020D136846FBF72CFF069810E042
:10490000032008B010BD042008B010BD6846FBF7B6
:1049100021FF0798208005E06846FBF71BFF0798FA
:10492000400A2060002008B010BD000080B5084695
:1049300011461A464FF0FF33FBF748FF00281CBF13
:10494000012080BDFBF710FF0028FBD1002080BDB7
:1049500080B5FFF7EDFD80BD80B5084611461A46CB
:104960004FF0FF33FBF746FF00281CBF012080BD3E
:10497000FBF7FAFE0028FBD1002080BD70B515467C
:104980000E464FF4C05132462B46044600F018F84C
:1049900068B9204631462A4600F08AF838B92046E0
:1049A0004FF4C06132462B4600F00AF828B1206E61
:1049B00040F020002066032070BD002070BD000084
:1049C0002DE9F04F83B04FF000091E4690460D468A
:1049D00083468DF80790FCF703FA301A00EB0807BE
:1049E000FCF7FEF940F21001C2F20001096823222F
:1049F0005143090DDBF800A079430291DAF8081061
:104A000029424DD0064608F1010404E0DBF800001D
:104A10008068284217D0B5F5C06F05D19AF80C0010
:104A20008DF807009DF80700002CEFD0FCF7D8F9AF
:104A3000801BB8420AD202980299002808BF074694
:104A4000481E0290E2E74FF0000929E0DBE900018F
:104A50004268B1F5827F22F0E00242600BD1DBF8C0
:104A60000810B1F5004F02D0B1F5806F03D1016895
:104A700021F040010160DBF82810B1F5005F07D19B
:104A8000016821F400510160016841F400510160A6
:104A900001208BF85D0000208BF85C004FF00309CB
:104AA000484603B000F000B830BCBDE8C08F00003D
:104AB000F0B581B015460E460446FCF791F9281A68
:104AC0008719FCF78DF940F21001C2F20001096864
:104AD000C1F3CB317943009121688968090602D47A
:104AE000002001B0F0BD0546013603E02068806873
:104AF0000006F5D5002EF9D0FCF772F9401BB8423C
:104B000007D200980099002808BF0746481E009069
:104B1000ECE7D4E900014268B1F5827F22F0E002BF
:104B200042600AD1A168B1F5004F02D0B1F5806FA3
:104B300003D1016821F040010160A16AB1F5005F75
:104B400007D1016821F400510160016841F400516E
:104B50000160012084F85D00002084F85C000320DF
:104B600001B0F0BD70470000B0B501380024B4EBCF
:104B7000106F1CBF0120B0BD4EF21005CEF2000533
:104B800068604FF0FF300F2100F046FE0720AC6058
:104B900028602046B0BD000080B5FCF727F980BD35
:104BA00010B596B005A84421FBF747FB00244FF44D
:104BB00000700494CDE90244CDE90044FCF792F979
:104BC00078BBFCF7D3F941F29000C4F2020001680F
:104BD000602221F0180101601420012105900D923E
:104BE0000222CDE911100720CDE9130205A8079193
:104BF000CDE90B14CDE90F211592FCF71DFE80B90C
:104C00000F200090032001900020CDE902000490C5
:104C100068460221FCF7BAFC18B9FCF7B1F916B0E6
:104C200010BDFBF74BFE00004EF68850CEF20000A0
:104C3000016841F4700101607047000080B540F2E6
:104C4000F020C2F20000FEF711F880BDB0B542F6C8
:104C5000004E0368C4F2010E704502D0B0F1804FDF
:104C600003D14A6823F07003134343F6FF72C4F282
:104C7000010244F2004C9042C4F2010C05DCB0F198
:104C8000804F0AD0704508D00BE0604505D044F253
:104C90000002C4F20102904203D1CA6823F44073B7
:104CA00013434C6923F080020B688D6822437045E2
:104CB0000260C562836218BF60450CD10969016357
:104CC000012141610169C90708BFB0BD016921F037
:104CD00001010161B0BD44F20002C4F20102904240
:104CE000EED1EBE7D0F808C011432CF47F4C41EA39
:104CF000032141EA0C01816070470000826822F0C4
:104D00007002114341F0070181607047D0F820C064
:104D1000036A23F001030362836923F0F00343EA8B
:104D200002122CF00A0319438261016270470000ED
:104D3000D0F820C0036A23F010030362836923F4D0
:104D4000704343EA02322CF0A00343EA011182616E
:104D50000162704780B5416A0A070CD4CA0715D1B1
:104D60008A071ED44A0727D4CA0630D48A0639D403
:104D70004A0657D541E00268D0F834C0536823F49E
:104D8000004343EA0C035360CA07E9D00268D0F835
:104D900028C0536823F4003343EA0C0353608A07A6
:104DA000E0D50268D0F82CC0536823F4803343EA7E
:104DB0000C0353604A07D7D50268D0F830C0536857
:104DC00023F4802343EA0C035360CA06CED502685D
:104DD000D0F838C0936823F4805343EA0C039360FF
:104DE0008A06C5D50268D0F83CC0936823F4005306
:104DF00043EA0C0393604A0614D50268D0F840C019
:104E00005368BCF5801F23F4801343EA0C035360FE
:104E100008D1D2F804C0D0F844E02CF4C00343EA2F
:104E20000E035360090658BF80BD0168806C4A6854
:104E300022F400221043486080BD0000B0B582B06B
:104E400004460020C4F88400FBF7CAFF2168054629
:104E5000096809071AD56FF07E4C20464FF40011FF
:104E600000222B46CDF800C000F0C0FB70B100BF9F
:104E7000206850E8000F216820F0800041E800021F
:104E8000002AF5D12020E06703202FE02068006889
:104E9000400724D56FF07E4C20464FF4800100225D
:104EA0002B46CDF800C000F0A1FBC0B1206850E84F
:104EB000000F216820F4907041E80002002AF5D12B
:104EC000206850E8020F216820F0010041E802024A
:104ED000002AF5D12020C4F88000032006E020201D
:104EE000E067C4F88000002020666066002184F836
:104EF000781002B0B0BD000080B5806A0021A0F833
:104F00005A10A0F85210FEF721F880BDB0B5846A9F
:104F10002068E16FD4F880508068212908D110F012
:104F2000800005D00020A4F85200204600F0ACF824
:104F30002068222D806808D110F0400005D00020A4
:104F4000A4F85A00204600F061F8D4F8840040F03C
:104F50001000C4F884002046FDF7F8FFB0BD000043
:104F600080B50168806A0968890631D40021A0F8FB
:104F70005A1000BF016851E8001F026821F48071D7
:104F800042E80013002BF5D1016851E8021F0268C6
:104F900021F0010142E80213002BF5D1016851E82C
:104FA000021F026821F0400142E80213002BF5D1F4
:104FB0002021C0F88010016E012909D1016851E853
:104FC000001F026821F0100142E80013002BF5D108
:104FD00000214166016E012904D1B0F85810FDF797
:104FE00065FF80BDFEF730FB80BD000080B5806AA4
:104FF00001214166016E012905D1B0F85810490818
:10500000FDF754FF80BDFEF73DFB80BD016851E810
:10501000001F026821F4907142E80013002BF5D1C3
:10502000016851E8021F026821F0010142E8021301
:10503000002BF5D1016E01290AD100BF016851E8AA
:10504000001F026821F0100142E80013002BF5D187
:105050002021C0F8801000210166816670470000A1
:1050600080B500BF016851E8001F026821F04001CF
:1050700042E80013002BF5D12021C1670021C16651
:10508000FEF762FB80BD0000016851E8001F026866
:1050900021F0C00142E80013002BF5D12021C167A7
:1050A0007047000080B5B0F85C100268D0F880301E
:1050B000222B58D1928C436D114023F8021B43657B
:1050C000B0F85A100139A0F85A10B0F85A10002957
:1050D00018BF80BD016851E8001F026821F490717B
:1050E00042E80013002BF5D1016851E8021F026865
:1050F00021F0010142E80213002BF5D12021C0F874
:105100008010002181664166016848F20002C4F205
:10511000000291420CD04968090209D5016851E8A2
:10512000001F026821F0806142E80013002BF5D1D6
:10513000016E01291CD10021016600BF016851E800
:10514000001F026821F0100142E80013002BF5D186
:105150000168CA69D20644BF10220A62B0F858102A
:10516000FDF7A4FE80BD108B40F00800108380BDC9
:10517000FEF76AFA80BD000080B5B0F85C100268E6
:10518000D0F88030222B5AD1928C436D1140197087
:10519000416D01314165B0F85A100139A0F85A103B
:1051A000B0F85A10002918BF80BD00BF016851E84F
:1051B000001F026821F4907142E80013002BF5D122
:1051C000016851E8021F026821F0010142E8021360
:1051D000002BF5D12021C0F88010002181664166A6
:1051E000016848F20002C4F2000291420CD0496802
:1051F000090209D5016851E8001F026821F08061A9
:1052000042E80013002BF5D1016E01291CD10021C9
:10521000016600BF016851E8001F026821F010011B
:1052200042E80013002BF5D10168CA69D20644BFD9
:1052300010220A62B0F85810FDF738FE80BD108BBE
:1052400040F00800108380BDFEF7FEF980BD00002D
:1052500070B504462269D4E90213006866690A43FE
:10526000E1693243066846F6F315CEF6FF750A4348
:105270002E4032430260426822F440521A43426098
:1052800048F20002A369C4F2000290421CBF266AE1
:105290003343866826F430663343836047F6FF73F2
:1052A000C4F2000398424FF0100312DC44F20046AF
:1052B000C4F20006B0421BD044F60006C4F2000659
:1052C000B04227D141F28803C4F202031B681B09D4
:1052D0001BE0904213D043F60006C4F20106B04230
:1052E00018D141F28803C4F202031B6864A60DE0E2
:1052F00041F28803C4F202031B689B0805E041F2F7
:105300008803C4F202031B689B0A59A603F0030337
:1053100056F82330904242F20040C0F2F40011D01F
:10532000B1F5004F1DD1082B00F25C800025DFE8AD
:1053300003F0055563595C59595960000025FCF785
:10534000F3F959E0082B1AD80026DFE803F0051816
:105350001F181C1818183E000026FCF7E5F9B0B914
:1053600038E0082B64D80025DFE803F0055E6C62A6
:105370006562626269000025FCF7D6F962E00020F0
:10538000012620B926E00026FCF7F6F910B3626882
:10539000012502EB4201884265D31103884262D89D
:1053A000010E000210EB520041F100010023FAF758
:1053B00009FF4FF6FF42A0F54071C0F20F02914283
:1053C0000AD821683546C8604DE04FF400400026F9
:1053D0000028DCD1354646E0012544E00025FCF7F5
:1053E000B7F909E00020012506E00025FCF7C4F923
:1053F00002E04FF400400025A8B361684A0802EBC0
:105400004000B0FBF1F04FF6EF72A0F110019142B5
:1054100008D84FF6F0710140C0F3420022680844FA
:10542000D06020E001251EE00025FCF791F909E09D
:105430000020012506E00025FCF79EF902E04FF46C
:105440000040002578B161684FF6EF7200EB510023
:10545000B0FBF1F0A0F11001914203D8216880B2B5
:10546000C86000E0012500212846A166E16670BD04
:10547000000000000400000002000000080000001E
:10548000010000000400000002000000080000000D
:10549000B0B513460A46416500210446A0F85830CD
:1054A000C0F884102220C4F88000606FE8B144F690
:1054B0000D75C0F600054563256844F6617C44F629
:1054C000ED7EC0F6000CC0F6000E816305F12401EC
:1054D000C0E90BCEFBF732FB38B11020C4F88400D2
:1054E0002020C4F880000120B0BD206950B100BF69
:1054F000206850E8000F216840F4807041E8000205
:10550000002AF5D1206850E8020F216840F0010020
:1055100041E80202002AF5D1206850E8020F216814
:1055200040F0400041E80202002AF5D10020B0BD61
:105530004165A0F85820A0F85A20816800228266B0
:1055400051B1B1F1805F0BD0B1F5805F0CD1016931
:1055500021B940F2FF110AE0016939B9FF2106E0E3
:10556000016919B13F2102E0002100E07F21A0F88C
:105570005C100021C0F884102221C0F8801000BF08
:10558000016851E8021F026841F0010142E802137C
:10559000002BF5D18168B1F5805F01D10169F9B1C6
:1055A00045F27911C0F600010269816662B100BF5F
:1055B000016851E8001F026841F4907142E800134D
:1055C000002BF5D10AE000BF016851E8001F026816
:1055D00041F0200142E80013002BF5D10020704774
:1055E00045F2A501C0F60001DEE700002DE9F04319
:1055F00081B004460068C0690840401AB0FA80F0E3
:10560000400990423DD1DDF8208015460E4699466E
:1056100008F1010709E000BF2068C0693040801B25
:10562000B0FA80F04009A8422FD1002FF4D0FBF748
:10563000D7FB0146B8F1000F4FF0030026D0A1EBD5
:105640000901414522D8206801684907E4D5402E68
:10565000E2D0802EE0D0C16909071AD4C1690905DA
:10566000DAD54FF4006101622046FFF7CFFC20201D
:10567000C4F88400002084F87800032001B0BDE85D
:10568000F083002001B0BDE8F083002001B0BDE848
:10569000F083082505622046FFF7B8FC0020C4F817
:1056A000845084F87800012001B0BDE8F083000048
:1056B00010B540F23C34C2F200042046FDF748FC2D
:1056C000204600F071F810BD10B540F2C434C2F2AB
:1056D00000042046FDF73CFC204600F065F810BDB4
:1056E00010B540F24C44C2F200042046FDF730FCF5
:1056F000204600F059F810BD70B50446FDF7DAFBFE
:10570000206844F60001C4F20001884227D043F625
:105710000001C4F20101884218BF70BD40F2301090
:10572000C2F20000006840F261754068C2F20005F4
:10573000C043C1B20020685440F66000C2F20000CD
:10574000FAF77BFD2846FAF783FD82B240F24C401F
:10575000C2F2000029466423FDF796FF1DE040F2E7
:10576000C010C2F20000006840F660054068C2F256
:105770000005C043C6B20020A8552846FAF768FDC8
:1057800082B240F23C30C2F2000029466423FDF7A9
:105790007BFF28463146FAF750FD20462946FF2276
:1057A000FDF7F2FE70BD000080B5016844F20042D2
:1057B000C4F2000291420BD043F60002C4F201028F
:1057C000914205D044F60002C4F20002914207D192
:1057D000CA69D20658BF80BD10220A62FFF78CFF4B
:1057E00080BD0000FEE70000002848BF704700F0C1
:1057F0001F01012202FA01F14EF200124009CEF21D
:10580000000242F8201070474EF60C50CEF2000015
:105810000068C0F3022070474EF6145300F00F02E8
:10582000CEF2000309011A4400F16043B0F1FF3FDA
:10583000C8BF03F564421170704700004EF60C516A
:10584000CEF200010A684FF6FF031A4060F30A2205
:1058500042F0806040F0FD700860704780B582B013
:10586000019040F23C30C2F2000001A901224FF049
:10587000FF33FDF709FF019802B080BD80B582B00B
:1058800042688C46D18812890139013A92B200925D
:105890008BB200210022CDF804C000F015F802B050
:1058A00080BD000080B5FBF781F980BDB0B582B046
:1058B0001C460B460546009200F006FA2868214671
:1058C00000F01CFB02B0B0BD2DE9F04F83B00446E0
:1058D000DDE90CC00192ACEB0207226A0E46591AB0
:1058E00001317D1C40BACAB18FB22FB1911E3A4628
:1058F000013A21F8020FFBD1019A20463146CDF83A
:1059000000C000F0E1F9AEB276B37D002068216AF4
:105910002A4600F0D5FA013EF8D125E0AAB202925B
:1059200012B38DB24FF0000A4FEA014B87B204E088
:1059300002980AF1010A824516D0BBF1000FF7D098
:1059400001984FF000090AEB000800BF09EB0600C0
:1059500081B21FFA88F220463B46FFF7A7FF09F104
:1059600001094D45F2D1E3E703B000F000B830BCC7
:10597000BDE8C08F10B540F2A003C2F2000353F897
:1059800021100446416006200823022A38BF08205F
:1059900038BF0623085ACB5AC8800B814A7120466B
:1059A000012147F67C52002300F0E0F9204600F088
:1059B00005F820460021FFF761FF10BD2DE9F04FEB
:1059C0008FB00446006800214FF0000B00F05AF938
:1059D0006420FFF767FF2068012100F053F964207D
:1059E000FFF760FF2068002100F030F96420FFF726
:1059F00059FF20680121112200F0A6FA05204FF07E
:105A00000509FFF74FFFD4E9000140F244030A798A
:105A10004979C2F2000303EB8202535C0221362271
:105A20004FF0360800F090FA206802213A22052350
:105A300000F08AFA20680C213326CDE9001B0621EC
:105A4000B2220C230296039600F07EFA206802210F
:105A5000B722352300F078FA20680221BB221923EF
:105A600000F072FA20680221C0222C2300F06CFAA8
:105A700020680221C222012300F066FA2068022178
:105A8000C3221223122700F05FFA20680221C422E9
:105A9000202300F059FA20680221C6220F2300F0CB
:105AA00053FA2068A1250321D022A423009500F0F9
:105AB0004BFA60680079022845D0012877D0002889
:105AC00040F0B38036210DF1280C20681027042205
:105AD0004FF0080B00238CE80A080E214FF0250A2E
